{
  "address": "0xAd578511086c7b454DAf1f8BFbDCE6ca12dE2497",
  "abi": [
    {
      "inputs": [
        {
          "internalType": "contract ILensHub",
          "name": "_lensHub",
          "type": "address"
        },
        {
          "internalType": "address",
          "name": "_dedicatedMsgSender",
          "type": "address"
        }
      ],
      "stateMutability": "nonpayable",
      "type": "constructor"
    },
    {
      "inputs": [
        {
          "internalType": "address payable",
          "name": "_to",
          "type": "address"
        }
      ],
      "name": "collectFee",
      "outputs": [],
      "stateMutability": "nonpayable",
      "type": "function"
    },
    {
      "inputs": [],
      "name": "dedicatedMsgSender",
      "outputs": [
        {
          "internalType": "address",
          "name": "",
          "type": "address"
        }
      ],
      "stateMutability": "view",
      "type": "function"
    },
    {
      "inputs": [],
      "name": "fee",
      "outputs": [
        {
          "internalType": "uint256",
          "name": "",
          "type": "uint256"
        }
      ],
      "stateMutability": "view",
      "type": "function"
    },
    {
      "inputs": [
        {
          "internalType": "uint256",
          "name": "_from",
          "type": "uint256"
        },
        {
          "internalType": "uint256",
          "name": "_to",
          "type": "uint256"
        }
      ],
      "name": "getPaginatedPrompts",
      "outputs": [
        {
          "components": [
            {
              "internalType": "uint256",
              "name": "profileId",
              "type": "uint256"
            },
            {
              "internalType": "string",
              "name": "prompt",
              "type": "string"
            }
          ],
          "internalType": "struct Prompt[]",
          "name": "results",
          "type": "tuple[]"
        }
      ],
      "stateMutability": "view",
      "type": "function"
    },
    {
      "inputs": [],
      "name": "lensHub",
      "outputs": [
        {
          "internalType": "contract ILensHub",
          "name": "",
          "type": "address"
        }
      ],
      "stateMutability": "view",
      "type": "function"
    },
    {
      "inputs": [
        {
          "internalType": "uint256",
          "name": "",
          "type": "uint256"
        }
      ],
      "name": "promptByProfileId",
      "outputs": [
        {
          "internalType": "string",
          "name": "",
          "type": "string"
        }
      ],
      "stateMutability": "view",
      "type": "function"
    },
    {
      "inputs": [
        {
          "internalType": "uint256",
          "name": "_fee",
          "type": "uint256"
        }
      ],
      "name": "setFee",
      "outputs": [],
      "stateMutability": "nonpayable",
      "type": "function"
    },
    {
      "inputs": [
        {
          "internalType": "uint256",
          "name": "_profileId",
          "type": "uint256"
        },
        {
          "internalType": "string",
          "name": "_prompt",
          "type": "string"
        }
      ],
      "name": "setPrompt",
      "outputs": [],
      "stateMutability": "payable",
      "type": "function"
    },
    {
      "inputs": [
        {
          "internalType": "uint256",
          "name": "_profileId",
          "type": "uint256"
        }
      ],
      "name": "stopPrompt",
      "outputs": [],
      "stateMutability": "nonpayable",
      "type": "function"
    }
  ],
  "transactionHash": "0xe2ce573127da82f94bb9d3a42ab5fb01a580c471ab6c90bf5d2c2d7a259b9e6b",
  "args": [
    "0xDb46d1Dc155634FbC732f92E853b10B288AD5a1d",
    "0xbB97656cd5fECe3a643335d03C8919D5E7DcD225"
  ],
  "numDeployments": 1,
  "solcInputHash": "a34e090e1be29d8788657091745504d8",
  "bytecode": "0x60c060405234801561000f575f80fd5b506040516111c03803806111c083398101604081905261002e9161005c565b6001600160a01b039182166080521660a052610094565b6001600160a01b0381168114610059575f80fd5b50565b5f806040838503121561006d575f80fd5b825161007881610045565b602084015190925061008981610045565b809150509250929050565b60805160a0516110f06100d05f395f81816099015261089101525f81816101a0015281816106070152818161077801526108bb01526110f05ff3fe608060405260043610610084575f3560e01c8063738eaf1211610057578063738eaf12146101445780637b2d9e4014610170578063b02cfdc31461018f578063ddca3f43146101c2578063f7f7a5a7146101e4575f80fd5b806328f150eb146100885780634f103884146100d857806369b59e751461010457806369fe0e2d14610125575b5f80fd5b348015610093575f80fd5b506100bb7f000000000000000000000000000000000000000000000000000000000000000081565b6040516001600160a01b0390911681526020015b60405180910390f35b3480156100e3575f80fd5b506100f76100f2366004610d41565b6101f7565b6040516100cf9190610d9b565b34801561010f575f80fd5b5061012361011e366004610dc1565b61028e565b005b348015610130575f80fd5b5061012361013f366004610d41565b61031c565b34801561014f575f80fd5b5061016361015e366004610ddc565b610393565b6040516100cf9190610dfc565b34801561017b575f80fd5b5061012361018a366004610d41565b6105ef565b34801561019a575f80fd5b506100bb7f000000000000000000000000000000000000000000000000000000000000000081565b3480156101cd575f80fd5b506101d65f5481565b6040519081526020016100cf565b6101236101f2366004610e6e565b610755565b60016020525f90815260409020805461020f90610ee3565b80601f016020809104026020016040519081016040528092919081815260200182805461023b90610ee3565b80156102865780601f1061025d57610100808354040283529160200191610286565b820191905f5260205f20905b81548152906001019060200180831161026957829003601f168201915b505050505081565b7fb53127684a568b3173ae13b9f8a6016e243e63b6e8ee1178d6a717850b5d6103546001600160a01b0316336001600160a01b0316146103065760405162461bcd60e51b815260206004820152600e60248201526d1393d517d055551213d49256915160921b60448201526064015b60405180910390fd5b6103196001600160a01b038216476109d2565b50565b7fb53127684a568b3173ae13b9f8a6016e243e63b6e8ee1178d6a717850b5d6103546001600160a01b0316336001600160a01b03161461038f5760405162461bcd60e51b815260206004820152600e60248201526d1393d517d055551213d49256915160921b60448201526064016102fd565b5f55565b60608183106103f35760405162461bcd60e51b815260206004820152602660248201527f4c656e7347656c61746f4750542e676574506167696e6174656450726f6d7074604482015265733a205f746f60d01b60648201526084016102fd565b6103fd6002610aec565b831061045c5760405162461bcd60e51b815260206004820152602860248201527f4c656e7347656c61746f4750542e676574506167696e6174656450726f6d7074604482015267733a205f66726f6d60c01b60648201526084016102fd565b6104666002610aec565b8210610479576104766002610aec565b91505b6104838383610f2f565b67ffffffffffffffff81111561049b5761049b610f42565b6040519080825280602002602001820160405280156104e057816020015b604080518082019091525f8152606060208201528152602001906001900390816104b95790505b509050825b828110156105e8575f6104f9600283610afb565b90505f604051806040016040528083815260200160015f8581526020019081526020015f20805461052990610ee3565b80601f016020809104026020016040519081016040528092919081815260200182805461055590610ee3565b80156105a05780601f10610577576101008083540402835291602001916105a0565b820191905f5260205f20905b81548152906001019060200180831161058357829003601f168201915b50505050508152509050808487856105b89190610f2f565b815181106105c8576105c8610f56565b6020026020010181905250505080806105e090610f6a565b9150506104e5565b5092915050565b6040516331a9108f60e11b81526004810182905281907f00000000000000000000000000000000000000000000000000000000000000006001600160a01b031690636352211e90602401602060405180830381865afa158015610654573d5f803e3d5ffd5b505050506040513d601f19601f820116820180604052508101906106789190610f82565b6001600160a01b0316336001600160a01b0316146106d85760405162461bcd60e51b815260206004820152601e60248201527f4c656e7347656c61746f4750542e6f6e6c7950726f66696c654f776e6572000060448201526064016102fd565b6106e3600283610b0d565b61072f5760405162461bcd60e51b815260206004820152601d60248201527f4c656e7347656c61746f4750542e73746f7050726f6d70743a2034303400000060448201526064016102fd565b61073a600283610b24565b505f82815260016020526040812061075191610cf7565b5050565b61075e33610b2f565b6040516331a9108f60e11b8152600481018490526107ee907f00000000000000000000000000000000000000000000000000000000000000006001600160a01b031690636352211e90602401602060405180830381865afa1580156107c5573d5f803e3d5ffd5b505050506040513d601f19601f820116820180604052508101906107e99190610f82565b610b2f565b5f54341461083e5760405162461bcd60e51b815260206004820152601c60248201527f4c656e7347656c61746f4750542e73657450726f6d70743a206665650000000060448201526064016102fd565b60a081111561088f5760405162461bcd60e51b815260206004820152601f60248201527f4c656e7347656c61746f4750542e73657450726f6d70743a206c656e6774680060448201526064016102fd565b7f00000000000000000000000000000000000000000000000000000000000000006001600160a01b03167f00000000000000000000000000000000000000000000000000000000000000006001600160a01b031663540528b9856040518263ffffffff1660e01b815260040161090791815260200190565b602060405180830381865afa158015610922573d5f803e3d5ffd5b505050506040513d601f19601f820116820180604052508101906109469190610f82565b6001600160a01b0316146109a85760405162461bcd60e51b815260206004820152602360248201527f4c656e7347656c61746f4750542e73657450726f6d70743a20646973706174636044820152623432b960e91b60648201526084016102fd565b6109b3600284610b77565b505f8381526001602052604090206109cc828483610fea565b50505050565b80471015610a225760405162461bcd60e51b815260206004820152601d60248201527f416464726573733a20696e73756666696369656e742062616c616e636500000060448201526064016102fd565b5f826001600160a01b0316826040515f6040518083038185875af1925050503d805f8114610a6b576040519150601f19603f3d011682016040523d82523d5f602084013e610a70565b606091505b5050905080610ae75760405162461bcd60e51b815260206004820152603a60248201527f416464726573733a20756e61626c6520746f2073656e642076616c75652c207260448201527f6563697069656e74206d6179206861766520726576657274656400000000000060648201526084016102fd565b505050565b5f610af5825490565b92915050565b5f610b068383610b82565b9392505050565b5f8181526001830160205260408120541515610b06565b5f610b068383610ba8565b6040516001600160a01b03821660248201526103199060440160408051601f198184030181529190526020810180516001600160e01b031663161765e160e11b179052610c8b565b5f610b068383610cab565b5f825f018281548110610b9757610b97610f56565b905f5260205f200154905092915050565b5f8181526001830160205260408120548015610c82575f610bca600183610f2f565b85549091505f90610bdd90600190610f2f565b9050818114610c3c575f865f018281548110610bfb57610bfb610f56565b905f5260205f200154905080875f018481548110610c1b57610c1b610f56565b5f918252602080832090910192909255918252600188019052604090208390555b8554869080610c4d57610c4d6110a6565b600190038181905f5260205f20015f90559055856001015f8681526020019081526020015f205f905560019350505050610af5565b5f915050610af5565b80516a636f6e736f6c652e6c6f67602083015f808483855afa5050505050565b5f818152600183016020526040812054610cf057508154600181810184555f848152602080822090930184905584548482528286019093526040902091909155610af5565b505f610af5565b508054610d0390610ee3565b5f825580601f10610d12575050565b601f0160209004905f5260205f209081019061031991905b80821115610d3d575f8155600101610d2a565b5090565b5f60208284031215610d51575f80fd5b5035919050565b5f81518084525f5b81811015610d7c57602081850181015186830182015201610d60565b505f602082860101526020601f19601f83011685010191505092915050565b602081525f610b066020830184610d58565b6001600160a01b0381168114610319575f80fd5b5f60208284031215610dd1575f80fd5b8135610b0681610dad565b5f8060408385031215610ded575f80fd5b50508035926020909101359150565b5f6020808301818452808551808352604092508286019150828160051b8701018488015f5b83811015610e6057888303603f19018552815180518452870151878401879052610e4d87850182610d58565b9588019593505090860190600101610e21565b509098975050505050505050565b5f805f60408486031215610e80575f80fd5b83359250602084013567ffffffffffffffff80821115610e9e575f80fd5b818601915086601f830112610eb1575f80fd5b813581811115610ebf575f80fd5b876020828501011115610ed0575f80fd5b6020830194508093505050509250925092565b600181811c90821680610ef757607f821691505b602082108103610f1557634e487b7160e01b5f52602260045260245ffd5b50919050565b634e487b7160e01b5f52601160045260245ffd5b81810381811115610af557610af5610f1b565b634e487b7160e01b5f52604160045260245ffd5b634e487b7160e01b5f52603260045260245ffd5b5f60018201610f7b57610f7b610f1b565b5060010190565b5f60208284031215610f92575f80fd5b8151610b0681610dad565b601f821115610ae7575f81815260208120601f850160051c81016020861015610fc35750805b601f850160051c820191505b81811015610fe257828155600101610fcf565b505050505050565b67ffffffffffffffff83111561100257611002610f42565b611016836110108354610ee3565b83610f9d565b5f601f841160018114611047575f85156110305750838201355b5f19600387901b1c1916600186901b17835561109f565b5f83815260209020601f19861690835b828110156110775786850135825560209485019460019092019101611057565b5086821015611093575f1960f88860031b161c19848701351681555b505060018560011b0183555b5050505050565b634e487b7160e01b5f52603160045260245ffdfea2646970667358221220197560a36a4ace82980376d66d56a9ad8a14f4e385fcc3bbeb21b399d4b0723864736f6c63430008140033",
  "devdoc": {
    "kind": "dev",
    "methods": {},
    "version": 1
  },
  "userdoc": {
    "kind": "user",
    "methods": {},
    "version": 1
  },
  "storageLayout": {
    "storage": [
      {
        "astId": 928,
        "contract": "contracts/LensGelatoGPT.sol:LensGelatoGPT",
        "label": "fee",
        "offset": 0,
        "slot": "0",
        "type": "t_uint256"
      },
      {
        "astId": 932,
        "contract": "contracts/LensGelatoGPT.sol:LensGelatoGPT",
        "label": "promptByProfileId",
        "offset": 0,
        "slot": "1",
        "type": "t_mapping(t_uint256,t_string_storage)"
      },
      {
        "astId": 935,
        "contract": "contracts/LensGelatoGPT.sol:LensGelatoGPT",
        "label": "_profiles",
        "offset": 0,
        "slot": "2",
        "type": "t_struct(UintSet)766_storage"
      }
    ],
    "types": {
      "t_array(t_bytes32)dyn_storage": {
        "base": "t_bytes32",
        "encoding": "dynamic_array",
        "label": "bytes32[]",
        "numberOfBytes": "32"
      },
      "t_bytes32": {
        "encoding": "inplace",
        "label": "bytes32",
        "numberOfBytes": "32"
      },
      "t_mapping(t_bytes32,t_uint256)": {
        "encoding": "mapping",
        "key": "t_bytes32",
        "label": "mapping(bytes32 => uint256)",
        "numberOfBytes": "32",
        "value": "t_uint256"
      },
      "t_mapping(t_uint256,t_string_storage)": {
        "encoding": "mapping",
        "key": "t_uint256",
        "label": "mapping(uint256 => string)",
        "numberOfBytes": "32",
        "value": "t_string_storage"
      },
      "t_string_storage": {
        "encoding": "bytes",
        "label": "string",
        "numberOfBytes": "32"
      },
      "t_struct(Set)294_storage": {
        "encoding": "inplace",
        "label": "struct EnumerableSetUpgradeable.Set",
        "members": [
          {
            "astId": 289,
            "contract": "contracts/LensGelatoGPT.sol:LensGelatoGPT",
            "label": "_values",
            "offset": 0,
            "slot": "0",
            "type": "t_array(t_bytes32)dyn_storage"
          },
          {
            "astId": 293,
            "contract": "contracts/LensGelatoGPT.sol:LensGelatoGPT",
            "label": "_indexes",
            "offset": 0,
            "slot": "1",
            "type": "t_mapping(t_bytes32,t_uint256)"
          }
        ],
        "numberOfBytes": "64"
      },
      "t_struct(UintSet)766_storage": {
        "encoding": "inplace",
        "label": "struct EnumerableSetUpgradeable.UintSet",
        "members": [
          {
            "astId": 765,
            "contract": "contracts/LensGelatoGPT.sol:LensGelatoGPT",
            "label": "_inner",
            "offset": 0,
            "slot": "0",
            "type": "t_struct(Set)294_storage"
          }
        ],
        "numberOfBytes": "64"
      },
      "t_uint256": {
        "encoding": "inplace",
        "label": "uint256",
        "numberOfBytes": "32"
      }
    }
  }
}