{
  "address": "0x7D8Ade77A347Ba6ee34eac0f825Fc37B0A66B268",
  "abi": [
    {
      "inputs": [
        {
          "internalType": "contract ILensHub",
          "name": "_lensHub",
          "type": "address"
        },
        {
          "internalType": "address",
          "name": "_dedicatedMsgSender",
          "type": "address"
        }
      ],
      "stateMutability": "nonpayable",
      "type": "constructor"
    },
    {
      "inputs": [
        {
          "internalType": "address payable",
          "name": "_to",
          "type": "address"
        }
      ],
      "name": "collectFee",
      "outputs": [],
      "stateMutability": "nonpayable",
      "type": "function"
    },
    {
      "inputs": [],
      "name": "dedicatedMsgSender",
      "outputs": [
        {
          "internalType": "address",
          "name": "",
          "type": "address"
        }
      ],
      "stateMutability": "view",
      "type": "function"
    },
    {
      "inputs": [],
      "name": "fee",
      "outputs": [
        {
          "internalType": "uint256",
          "name": "",
          "type": "uint256"
        }
      ],
      "stateMutability": "view",
      "type": "function"
    },
    {
      "inputs": [
        {
          "internalType": "uint256",
          "name": "_from",
          "type": "uint256"
        },
        {
          "internalType": "bool",
          "name": "_inRun",
          "type": "bool"
        }
      ],
      "name": "getPaginatedPrompts",
      "outputs": [
        {
          "components": [
            {
              "internalType": "uint256",
              "name": "profileId",
              "type": "uint256"
            },
            {
              "internalType": "string",
              "name": "prompt",
              "type": "string"
            }
          ],
          "internalType": "struct Prompt[]",
          "name": "results",
          "type": "tuple[]"
        },
        {
          "internalType": "uint256",
          "name": "nextPromptIndex",
          "type": "uint256"
        },
        {
          "internalType": "uint256",
          "name": "resultsLength",
          "type": "uint256"
        }
      ],
      "stateMutability": "view",
      "type": "function"
    },
    {
      "inputs": [],
      "name": "lensHub",
      "outputs": [
        {
          "internalType": "contract ILensHub",
          "name": "",
          "type": "address"
        }
      ],
      "stateMutability": "view",
      "type": "function"
    },
    {
      "inputs": [],
      "name": "newcomersPointer",
      "outputs": [
        {
          "internalType": "uint256",
          "name": "",
          "type": "uint256"
        }
      ],
      "stateMutability": "view",
      "type": "function"
    },
    {
      "inputs": [
        {
          "internalType": "uint256",
          "name": "",
          "type": "uint256"
        }
      ],
      "name": "promptByProfileId",
      "outputs": [
        {
          "internalType": "string",
          "name": "",
          "type": "string"
        }
      ],
      "stateMutability": "view",
      "type": "function"
    },
    {
      "inputs": [
        {
          "internalType": "uint256",
          "name": "_fee",
          "type": "uint256"
        }
      ],
      "name": "setFee",
      "outputs": [],
      "stateMutability": "nonpayable",
      "type": "function"
    },
    {
      "inputs": [
        {
          "internalType": "uint256",
          "name": "_profileId",
          "type": "uint256"
        },
        {
          "internalType": "string",
          "name": "_prompt",
          "type": "string"
        }
      ],
      "name": "setPrompt",
      "outputs": [],
      "stateMutability": "payable",
      "type": "function"
    },
    {
      "inputs": [
        {
          "internalType": "uint256",
          "name": "_profileId",
          "type": "uint256"
        }
      ],
      "name": "stopPrompt",
      "outputs": [],
      "stateMutability": "nonpayable",
      "type": "function"
    },
    {
      "inputs": [
        {
          "internalType": "uint256",
          "name": "_newcomersPointer",
          "type": "uint256"
        }
      ],
      "name": "updateNewcomersPointer",
      "outputs": [],
      "stateMutability": "nonpayable",
      "type": "function"
    }
  ],
  "transactionHash": "0xfb076285d55ad81effc112c584a7c7ba8c7a738c5327e340a65543888ea9a20c",
  "args": [
    "0xDb46d1Dc155634FbC732f92E853b10B288AD5a1d",
    "0xbB97656cd5fECe3a643335d03C8919D5E7DcD225"
  ],
  "numDeployments": 1,
  "solcInputHash": "0e0130a0bbf1c8e82d0f9b15fb2e4b3a",
  "bytecode": "0x60c0604052600060065534801561001557600080fd5b5060405161160238038061160283398101604081905261003491610063565b6001600160a01b039182166080521660a05261009d565b6001600160a01b038116811461006057600080fd5b50565b6000806040838503121561007657600080fd5b82516100818161004b565b60208401519092506100928161004b565b809150509250929050565b60805160a0516115026101006000396000818160b3015281816102f6015281816106df015281816109a20152610cde0152600081816101e201528181610492015281816107090152818161082b015281816109cc0152610d0801526115026000f3fe60806040526004361061009c5760003560e01c80637b2d9e40116100645780637b2d9e4014610181578063a2bae47c146101a1578063b02cfdc3146101d0578063cad7792014610204578063ddca3f4314610228578063f7f7a5a71461023e57600080fd5b806328f150eb146100a15780634f103884146100f2578063550079241461011f57806369b59e751461014157806369fe0e2d14610161575b600080fd5b3480156100ad57600080fd5b506100d57f000000000000000000000000000000000000000000000000000000000000000081565b6040516001600160a01b0390911681526020015b60405180910390f35b3480156100fe57600080fd5b5061011261010d3660046110f0565b610251565b6040516100e9919061114f565b34801561012b57600080fd5b5061013f61013a3660046110f0565b6102eb565b005b34801561014d57600080fd5b5061013f61015c366004611177565b610379565b34801561016d57600080fd5b5061013f61017c3660046110f0565b610402565b34801561018d57600080fd5b5061013f61019c3660046110f0565b61047a565b3480156101ad57600080fd5b506101c16101bc36600461119b565b6105e3565b6040516100e9939291906111d0565b3480156101dc57600080fd5b506100d57f000000000000000000000000000000000000000000000000000000000000000081565b34801561021057600080fd5b5061021a60065481565b6040519081526020016100e9565b34801561023457600080fd5b5061021a60005481565b61013f61024c366004611254565b610813565b6001602052600090815260409020805461026a906112d0565b80601f0160208091040260200160405190810160405280929190818152602001828054610296906112d0565b80156102e35780601f106102b8576101008083540402835291602001916102e3565b820191906000526020600020905b8154815290600101906020018083116102c657829003601f168201915b505050505081565b336001600160a01b037f000000000000000000000000000000000000000000000000000000000000000016146103745760405162461bcd60e51b8152602060048201526024808201527f4c656e7347656c61746f4750542e6f6e6c794465646963617465644d73675365604482015263373232b960e11b60648201526084015b60405180910390fd5b600655565b7fb53127684a568b3173ae13b9f8a6016e243e63b6e8ee1178d6a717850b5d6103546001600160a01b0316336001600160a01b0316146103ec5760405162461bcd60e51b815260206004820152600e60248201526d1393d517d055551213d49256915160921b604482015260640161036b565b6103ff6001600160a01b03821647610b03565b50565b7fb53127684a568b3173ae13b9f8a6016e243e63b6e8ee1178d6a717850b5d6103546001600160a01b0316336001600160a01b0316146104755760405162461bcd60e51b815260206004820152600e60248201526d1393d517d055551213d49256915160921b604482015260640161036b565b600055565b6040516331a9108f60e11b81526004810182905281907f00000000000000000000000000000000000000000000000000000000000000006001600160a01b031690636352211e90602401602060405180830381865afa1580156104e1573d6000803e3d6000fd5b505050506040513d601f19601f82011682018060405250810190610505919061130a565b6001600160a01b0316336001600160a01b0316146105655760405162461bcd60e51b815260206004820152601e60248201527f4c656e7347656c61746f4750542e6f6e6c7950726f66696c654f776e65720000604482015260640161036b565b610570600283610c21565b6105bc5760405162461bcd60e51b815260206004820152601d60248201527f4c656e7347656c61746f4750542e73746f7050726f6d70743a20343034000000604482015260640161036b565b6105c7600283610c3e565b5060008281526001602052604081206105df916110a6565b5050565b60606000806105f26002610c4a565b8511156106525760405162461bcd60e51b815260206004820152602860248201527f4c656e7347656c61746f4750542e676574506167696e6174656450726f6d7074604482015267733a205f66726f6d60c01b606482015260840161036b565b60065461065d610c54565b935083518161066c919061133d565b905083518261067b919061133d565b915081600a148061068a575084155b15610695575061080c565b6106a76106a26002610c4a565b610df0565b855b866106b46002610c4a565b6106be9190611350565b8110156108095760006106d2600283610e35565b90506106dd82610df0565b7f00000000000000000000000000000000000000000000000000000000000000006001600160a01b03167f00000000000000000000000000000000000000000000000000000000000000006001600160a01b031663540528b9836040518263ffffffff1660e01b815260040161075591815260200190565b602060405180830381865afa158015610772573d6000803e3d6000fd5b505050506040513d601f19601f82011682018060405250810190610796919061130a565b6001600160a01b0316036107f6576107ad81610e41565b8685815181106107bf576107bf611363565b602002602001018190525083806107d590611379565b94505084806107e390611379565b95505083600a036107f65750505061080c565b508061080181611379565b9150506106a9565b50505b9250925092565b6040516331a9108f60e11b81526004810184905283907f00000000000000000000000000000000000000000000000000000000000000006001600160a01b031690636352211e90602401602060405180830381865afa15801561087a573d6000803e3d6000fd5b505050506040513d601f19601f8201168201806040525081019061089e919061130a565b6001600160a01b0316336001600160a01b0316146108fe5760405162461bcd60e51b815260206004820152601e60248201527f4c656e7347656c61746f4750542e6f6e6c7950726f66696c654f776e65720000604482015260640161036b565b600054341461094f5760405162461bcd60e51b815260206004820152601c60248201527f4c656e7347656c61746f4750542e73657450726f6d70743a2066656500000000604482015260640161036b565b60a08211156109a05760405162461bcd60e51b815260206004820152601f60248201527f4c656e7347656c61746f4750542e73657450726f6d70743a206c656e67746800604482015260640161036b565b7f00000000000000000000000000000000000000000000000000000000000000006001600160a01b03167f00000000000000000000000000000000000000000000000000000000000000006001600160a01b031663540528b9866040518263ffffffff1660e01b8152600401610a1891815260200190565b602060405180830381865afa158015610a35573d6000803e3d6000fd5b505050506040513d601f19601f82011682018060405250810190610a59919061130a565b6001600160a01b031614610abb5760405162461bcd60e51b815260206004820152602360248201527f4c656e7347656c61746f4750542e73657450726f6d70743a20646973706174636044820152623432b960e91b606482015260840161036b565b610ac6600485610c21565b610ad757610ad5600485610f0d565b505b610ae2600285610f0d565b506000848152600160205260409020610afc8385836113f6565b5050505050565b80471015610b535760405162461bcd60e51b815260206004820152601d60248201527f416464726573733a20696e73756666696369656e742062616c616e6365000000604482015260640161036b565b6000826001600160a01b03168260405160006040518083038185875af1925050503d8060008114610ba0576040519150601f19603f3d011682016040523d82523d6000602084013e610ba5565b606091505b5050905080610c1c5760405162461bcd60e51b815260206004820152603a60248201527f416464726573733a20756e61626c6520746f2073656e642076616c75652c207260448201527f6563697069656e74206d61792068617665207265766572746564000000000000606482015260840161036b565b505050565b600081815260018301602052604081205415155b90505b92915050565b6000610c358383610f19565b6000610c38825490565b60408051600a8082526101608201909252606091816020015b604080518082019091526000815260606020820152815260200190600190039081610c6d5790505090506000600654610ca66004610c4a565b1115610dec5760005b600654610cbc6004610c4a565b610cc69190611350565b811015610dea576000610cda600483610e35565b90507f00000000000000000000000000000000000000000000000000000000000000006001600160a01b03167f00000000000000000000000000000000000000000000000000000000000000006001600160a01b031663540528b9836040518263ffffffff1660e01b8152600401610d5491815260200190565b602060405180830381865afa158015610d71573d6000803e3d6000fd5b505050506040513d601f19601f82011682018060405250810190610d95919061130a565b6001600160a01b031603610dd757610dac81610e41565b848481518110610dbe57610dbe611363565b602002602001018190525082600a03610dd75750505090565b5080610de281611379565b915050610caf565b505b5090565b6103ff81604051602401610e0691815260200190565b60408051601f198184030181529190526020810180516001600160e01b031663f82c50f160e01b17905261100c565b6000610c35838361102d565b6040805180820190915260008152606060208201526040518060400160405280838152602001600160008581526020019081526020016000208054610e85906112d0565b80601f0160208091040260200160405190810160405280929190818152602001828054610eb1906112d0565b8015610efe5780601f10610ed357610100808354040283529160200191610efe565b820191906000526020600020905b815481529060010190602001808311610ee157829003601f168201915b50505050508152509050919050565b6000610c358383611057565b60008181526001830160205260408120548015611002576000610f3d600183611350565b8554909150600090610f5190600190611350565b9050818114610fb6576000866000018281548110610f7157610f71611363565b9060005260206000200154905080876000018481548110610f9457610f94611363565b6000918252602080832090910192909255918252600188019052604090208390555b8554869080610fc757610fc76114b6565b600190038181906000526020600020016000905590558560010160008681526020019081526020016000206000905560019350505050610c38565b6000915050610c38565b80516a636f6e736f6c652e6c6f67602083016000808483855afa5050505050565b600082600001828154811061104457611044611363565b9060005260206000200154905092915050565b600081815260018301602052604081205461109e57508154600181810184556000848152602080822090930184905584548482528286019093526040902091909155610c38565b506000610c38565b5080546110b2906112d0565b6000825580601f106110c2575050565b601f0160209004906000526020600020908101906103ff91905b80821115610dec57600081556001016110dc565b60006020828403121561110257600080fd5b5035919050565b6000815180845260005b8181101561112f57602081850181015186830182015201611113565b506000602082860101526020601f19601f83011685010191505092915050565b602081526000610c356020830184611109565b6001600160a01b03811681146103ff57600080fd5b60006020828403121561118957600080fd5b813561119481611162565b9392505050565b600080604083850312156111ae57600080fd5b82359150602083013580151581146111c557600080fd5b809150509250929050565b6000606082016060835280865180835260808501915060808160051b8601019250602080890160005b8381101561123b57878603607f19018552815180518752830151604084880181905261122781890183611109565b9750505093820193908201906001016111f9565b5050850196909652506040909201929092529392505050565b60008060006040848603121561126957600080fd5b83359250602084013567ffffffffffffffff8082111561128857600080fd5b818601915086601f83011261129c57600080fd5b8135818111156112ab57600080fd5b8760208285010111156112bd57600080fd5b6020830194508093505050509250925092565b600181811c908216806112e457607f821691505b60208210810361130457634e487b7160e01b600052602260045260246000fd5b50919050565b60006020828403121561131c57600080fd5b815161119481611162565b634e487b7160e01b600052601160045260246000fd5b80820180821115610c3857610c38611327565b81810381811115610c3857610c38611327565b634e487b7160e01b600052603260045260246000fd5b60006001820161138b5761138b611327565b5060010190565b634e487b7160e01b600052604160045260246000fd5b601f821115610c1c57600081815260208120601f850160051c810160208610156113cf5750805b601f850160051c820191505b818110156113ee578281556001016113db565b505050505050565b67ffffffffffffffff83111561140e5761140e611392565b6114228361141c83546112d0565b836113a8565b6000601f841160018114611456576000851561143e5750838201355b600019600387901b1c1916600186901b178355610afc565b600083815260209020601f19861690835b828110156114875786850135825560209485019460019092019101611467565b50868210156114a45760001960f88860031b161c19848701351681555b505060018560011b0183555050505050565b634e487b7160e01b600052603160045260246000fdfea2646970667358221220a51f019c180bee2e5c98994253009496298132ff98103e24641ec138216deb7264736f6c63430008130033",
  "devdoc": {
    "kind": "dev",
    "methods": {},
    "version": 1
  },
  "userdoc": {
    "kind": "user",
    "methods": {},
    "version": 1
  },
  "storageLayout": {
    "storage": [
      {
        "astId": 928,
        "contract": "contracts/LensGelatoGPT.sol:LensGelatoGPT",
        "label": "fee",
        "offset": 0,
        "slot": "0",
        "type": "t_uint256"
      },
      {
        "astId": 932,
        "contract": "contracts/LensGelatoGPT.sol:LensGelatoGPT",
        "label": "promptByProfileId",
        "offset": 0,
        "slot": "1",
        "type": "t_mapping(t_uint256,t_string_storage)"
      },
      {
        "astId": 935,
        "contract": "contracts/LensGelatoGPT.sol:LensGelatoGPT",
        "label": "_profiles",
        "offset": 0,
        "slot": "2",
        "type": "t_struct(UintSet)766_storage"
      },
      {
        "astId": 938,
        "contract": "contracts/LensGelatoGPT.sol:LensGelatoGPT",
        "label": "_newcomers",
        "offset": 0,
        "slot": "4",
        "type": "t_struct(UintSet)766_storage"
      },
      {
        "astId": 941,
        "contract": "contracts/LensGelatoGPT.sol:LensGelatoGPT",
        "label": "newcomersPointer",
        "offset": 0,
        "slot": "6",
        "type": "t_uint256"
      }
    ],
    "types": {
      "t_array(t_bytes32)dyn_storage": {
        "base": "t_bytes32",
        "encoding": "dynamic_array",
        "label": "bytes32[]",
        "numberOfBytes": "32"
      },
      "t_bytes32": {
        "encoding": "inplace",
        "label": "bytes32",
        "numberOfBytes": "32"
      },
      "t_mapping(t_bytes32,t_uint256)": {
        "encoding": "mapping",
        "key": "t_bytes32",
        "label": "mapping(bytes32 => uint256)",
        "numberOfBytes": "32",
        "value": "t_uint256"
      },
      "t_mapping(t_uint256,t_string_storage)": {
        "encoding": "mapping",
        "key": "t_uint256",
        "label": "mapping(uint256 => string)",
        "numberOfBytes": "32",
        "value": "t_string_storage"
      },
      "t_string_storage": {
        "encoding": "bytes",
        "label": "string",
        "numberOfBytes": "32"
      },
      "t_struct(Set)294_storage": {
        "encoding": "inplace",
        "label": "struct EnumerableSetUpgradeable.Set",
        "members": [
          {
            "astId": 289,
            "contract": "contracts/LensGelatoGPT.sol:LensGelatoGPT",
            "label": "_values",
            "offset": 0,
            "slot": "0",
            "type": "t_array(t_bytes32)dyn_storage"
          },
          {
            "astId": 293,
            "contract": "contracts/LensGelatoGPT.sol:LensGelatoGPT",
            "label": "_indexes",
            "offset": 0,
            "slot": "1",
            "type": "t_mapping(t_bytes32,t_uint256)"
          }
        ],
        "numberOfBytes": "64"
      },
      "t_struct(UintSet)766_storage": {
        "encoding": "inplace",
        "label": "struct EnumerableSetUpgradeable.UintSet",
        "members": [
          {
            "astId": 765,
            "contract": "contracts/LensGelatoGPT.sol:LensGelatoGPT",
            "label": "_inner",
            "offset": 0,
            "slot": "0",
            "type": "t_struct(Set)294_storage"
          }
        ],
        "numberOfBytes": "64"
      },
      "t_uint256": {
        "encoding": "inplace",
        "label": "uint256",
        "numberOfBytes": "32"
      }
    }
  }
}