{
  "address": "0x166c1657D6927EeF51D1FC8aC7b2CF001Cbf8dFE",
  "abi": [
    {
      "inputs": [
        {
          "internalType": "contract ILensHub",
          "name": "_lensHub",
          "type": "address"
        },
        {
          "internalType": "address",
          "name": "_dedicatedMsgSender",
          "type": "address"
        }
      ],
      "stateMutability": "nonpayable",
      "type": "constructor"
    },
    {
      "inputs": [
        {
          "internalType": "address payable",
          "name": "_to",
          "type": "address"
        }
      ],
      "name": "collectFee",
      "outputs": [],
      "stateMutability": "nonpayable",
      "type": "function"
    },
    {
      "inputs": [],
      "name": "dedicatedMsgSender",
      "outputs": [
        {
          "internalType": "address",
          "name": "",
          "type": "address"
        }
      ],
      "stateMutability": "view",
      "type": "function"
    },
    {
      "inputs": [],
      "name": "fee",
      "outputs": [
        {
          "internalType": "uint256",
          "name": "",
          "type": "uint256"
        }
      ],
      "stateMutability": "view",
      "type": "function"
    },
    {
      "inputs": [
        {
          "internalType": "uint256",
          "name": "_from",
          "type": "uint256"
        },
        {
          "internalType": "uint256",
          "name": "_to",
          "type": "uint256"
        }
      ],
      "name": "getPaginatedPrompts",
      "outputs": [
        {
          "components": [
            {
              "internalType": "uint256",
              "name": "profileId",
              "type": "uint256"
            },
            {
              "internalType": "string",
              "name": "prompt",
              "type": "string"
            }
          ],
          "internalType": "struct Prompt[]",
          "name": "results",
          "type": "tuple[]"
        }
      ],
      "stateMutability": "view",
      "type": "function"
    },
    {
      "inputs": [],
      "name": "lensHub",
      "outputs": [
        {
          "internalType": "contract ILensHub",
          "name": "",
          "type": "address"
        }
      ],
      "stateMutability": "view",
      "type": "function"
    },
    {
      "inputs": [
        {
          "internalType": "uint256",
          "name": "",
          "type": "uint256"
        }
      ],
      "name": "promptByProfileId",
      "outputs": [
        {
          "internalType": "string",
          "name": "",
          "type": "string"
        }
      ],
      "stateMutability": "view",
      "type": "function"
    },
    {
      "inputs": [
        {
          "internalType": "uint256",
          "name": "_fee",
          "type": "uint256"
        }
      ],
      "name": "setFee",
      "outputs": [],
      "stateMutability": "nonpayable",
      "type": "function"
    },
    {
      "inputs": [
        {
          "internalType": "uint256",
          "name": "_profileId",
          "type": "uint256"
        },
        {
          "internalType": "string",
          "name": "_prompt",
          "type": "string"
        }
      ],
      "name": "setPrompt",
      "outputs": [],
      "stateMutability": "payable",
      "type": "function"
    },
    {
      "inputs": [
        {
          "internalType": "uint256",
          "name": "_profileId",
          "type": "uint256"
        }
      ],
      "name": "stopPrompt",
      "outputs": [],
      "stateMutability": "nonpayable",
      "type": "function"
    }
  ],
  "transactionHash": "0x165adb9fc1061487661e031035def720cd216670be82a2bdf22a978d4f54c092",
  "args": [
    "0x60Ae865ee4C725cd04353b5AAb364553f56ceF82",
    "0xcc53666e25BF52C7c5Bc1e8F6E1F6bf58E871659"
  ],
  "numDeployments": 1,
  "solcInputHash": "579f6ddf14e21b32b9624ee444611cee",
  "bytecode": "0x60c060405234801561001057600080fd5b5060405161121c38038061121c83398101604081905261002f9161005e565b6001600160a01b039182166080521660a052610098565b6001600160a01b038116811461005b57600080fd5b50565b6000806040838503121561007157600080fd5b825161007c81610046565b602084015190925061008d81610046565b809150509250929050565b60805160a0516111446100d860003960008181609d01526108ff0152600081816101aa0152818161061f01528181610788015261092901526111446000f3fe6080604052600436106100865760003560e01c8063738eaf1211610059578063738eaf121461014b5780637b2d9e4014610178578063b02cfdc314610198578063ddca3f43146101cc578063f7f7a5a7146101f057600080fd5b806328f150eb1461008b5780634f103884146100dc57806369b59e751461010957806369fe0e2d1461012b575b600080fd5b34801561009757600080fd5b506100bf7f000000000000000000000000000000000000000000000000000000000000000081565b6040516001600160a01b0390911681526020015b60405180910390f35b3480156100e857600080fd5b506100fc6100f7366004610d6f565b610203565b6040516100d39190610dce565b34801561011557600080fd5b50610129610124366004610df6565b61029d565b005b34801561013757600080fd5b50610129610146366004610d6f565b61032b565b34801561015757600080fd5b5061016b610166366004610e13565b6103a3565b6040516100d39190610e35565b34801561018457600080fd5b50610129610193366004610d6f565b610607565b3480156101a457600080fd5b506100bf7f000000000000000000000000000000000000000000000000000000000000000081565b3480156101d857600080fd5b506101e260005481565b6040519081526020016100d3565b6101296101fe366004610ea9565b610770565b6001602052600090815260409020805461021c90610f25565b80601f016020809104026020016040519081016040528092919081815260200182805461024890610f25565b80156102955780601f1061026a57610100808354040283529160200191610295565b820191906000526020600020905b81548152906001019060200180831161027857829003601f168201915b505050505081565b7fb53127684a568b3173ae13b9f8a6016e243e63b6e8ee1178d6a717850b5d6103546001600160a01b0316336001600160a01b0316146103155760405162461bcd60e51b815260206004820152600e60248201526d1393d517d055551213d49256915160921b60448201526064015b60405180910390fd5b6103286001600160a01b03821647610a44565b50565b7fb53127684a568b3173ae13b9f8a6016e243e63b6e8ee1178d6a717850b5d6103546001600160a01b0316336001600160a01b03161461039e5760405162461bcd60e51b815260206004820152600e60248201526d1393d517d055551213d49256915160921b604482015260640161030c565b600055565b60608183106104035760405162461bcd60e51b815260206004820152602660248201527f4c656e7347656c61746f4750542e676574506167696e6174656450726f6d7074604482015265733a205f746f60d01b606482015260840161030c565b61040d6002610b62565b83111561046d5760405162461bcd60e51b815260206004820152602860248201527f4c656e7347656c61746f4750542e676574506167696e6174656450726f6d7074604482015267733a205f66726f6d60c01b606482015260840161030c565b6104776002610b62565b821061048a576104876002610b62565b91505b6104948383610f75565b67ffffffffffffffff8111156104ac576104ac610f88565b6040519080825280602002602001820160405280156104f257816020015b6040805180820190915260008152606060208201528152602001906001900390816104ca5790505b509050825b8281101561060057600061050c600283610b72565b90506000604051806040016040528083815260200160016000858152602001908152602001600020805461053f90610f25565b80601f016020809104026020016040519081016040528092919081815260200182805461056b90610f25565b80156105b85780601f1061058d576101008083540402835291602001916105b8565b820191906000526020600020905b81548152906001019060200180831161059b57829003601f168201915b50505050508152509050808487856105d09190610f75565b815181106105e0576105e0610f9e565b6020026020010181905250505080806105f890610fb4565b9150506104f7565b5092915050565b6040516331a9108f60e11b81526004810182905281907f00000000000000000000000000000000000000000000000000000000000000006001600160a01b031690636352211e90602401602060405180830381865afa15801561066e573d6000803e3d6000fd5b505050506040513d601f19601f820116820180604052508101906106929190610fcd565b6001600160a01b0316336001600160a01b0316146106f25760405162461bcd60e51b815260206004820152601e60248201527f4c656e7347656c61746f4750542e6f6e6c7950726f66696c654f776e65720000604482015260640161030c565b6106fd600283610b85565b6107495760405162461bcd60e51b815260206004820152601d60248201527f4c656e7347656c61746f4750542e73746f7050726f6d70743a20343034000000604482015260640161030c565b610754600283610b9d565b50600082815260016020526040812061076c91610d21565b5050565b6040516331a9108f60e11b81526004810184905283907f00000000000000000000000000000000000000000000000000000000000000006001600160a01b031690636352211e90602401602060405180830381865afa1580156107d7573d6000803e3d6000fd5b505050506040513d601f19601f820116820180604052508101906107fb9190610fcd565b6001600160a01b0316336001600160a01b03161461085b5760405162461bcd60e51b815260206004820152601e60248201527f4c656e7347656c61746f4750542e6f6e6c7950726f66696c654f776e65720000604482015260640161030c565b60005434146108ac5760405162461bcd60e51b815260206004820152601c60248201527f4c656e7347656c61746f4750542e73657450726f6d70743a2066656500000000604482015260640161030c565b60a08211156108fd5760405162461bcd60e51b815260206004820152601f60248201527f4c656e7347656c61746f4750542e73657450726f6d70743a206c656e67746800604482015260640161030c565b7f00000000000000000000000000000000000000000000000000000000000000006001600160a01b03167f00000000000000000000000000000000000000000000000000000000000000006001600160a01b031663540528b9866040518263ffffffff1660e01b815260040161097591815260200190565b602060405180830381865afa158015610992573d6000803e3d6000fd5b505050506040513d601f19601f820116820180604052508101906109b69190610fcd565b6001600160a01b031614610a185760405162461bcd60e51b815260206004820152602360248201527f4c656e7347656c61746f4750542e73657450726f6d70743a20646973706174636044820152623432b960e91b606482015260840161030c565b610a23600285610ba9565b506000848152600160205260409020610a3d838583611038565b5050505050565b80471015610a945760405162461bcd60e51b815260206004820152601d60248201527f416464726573733a20696e73756666696369656e742062616c616e6365000000604482015260640161030c565b6000826001600160a01b03168260405160006040518083038185875af1925050503d8060008114610ae1576040519150601f19603f3d011682016040523d82523d6000602084013e610ae6565b606091505b5050905080610b5d5760405162461bcd60e51b815260206004820152603a60248201527f416464726573733a20756e61626c6520746f2073656e642076616c75652c207260448201527f6563697069656e74206d61792068617665207265766572746564000000000000606482015260840161030c565b505050565b6000610b6c825490565b92915050565b6000610b7e8383610bb5565b9392505050565b60008181526001830160205260408120541515610b7e565b6000610b7e8383610bdf565b6000610b7e8383610cd2565b6000826000018281548110610bcc57610bcc610f9e565b9060005260206000200154905092915050565b60008181526001830160205260408120548015610cc8576000610c03600183610f75565b8554909150600090610c1790600190610f75565b9050818114610c7c576000866000018281548110610c3757610c37610f9e565b9060005260206000200154905080876000018481548110610c5a57610c5a610f9e565b6000918252602080832090910192909255918252600188019052604090208390555b8554869080610c8d57610c8d6110f8565b600190038181906000526020600020016000905590558560010160008681526020019081526020016000206000905560019350505050610b6c565b6000915050610b6c565b6000818152600183016020526040812054610d1957508154600181810184556000848152602080822090930184905584548482528286019093526040902091909155610b6c565b506000610b6c565b508054610d2d90610f25565b6000825580601f10610d3d575050565b601f01602090049060005260206000209081019061032891905b80821115610d6b5760008155600101610d57565b5090565b600060208284031215610d8157600080fd5b5035919050565b6000815180845260005b81811015610dae57602081850181015186830182015201610d92565b506000602082860101526020601f19601f83011685010191505092915050565b602081526000610b7e6020830184610d88565b6001600160a01b038116811461032857600080fd5b600060208284031215610e0857600080fd5b8135610b7e81610de1565b60008060408385031215610e2657600080fd5b50508035926020909101359150565b60006020808301818452808551808352604092508286019150828160051b87010184880160005b83811015610e9b57888303603f19018552815180518452870151878401879052610e8887850182610d88565b9588019593505090860190600101610e5c565b509098975050505050505050565b600080600060408486031215610ebe57600080fd5b83359250602084013567ffffffffffffffff80821115610edd57600080fd5b818601915086601f830112610ef157600080fd5b813581811115610f0057600080fd5b876020828501011115610f1257600080fd5b6020830194508093505050509250925092565b600181811c90821680610f3957607f821691505b602082108103610f5957634e487b7160e01b600052602260045260246000fd5b50919050565b634e487b7160e01b600052601160045260246000fd5b81810381811115610b6c57610b6c610f5f565b634e487b7160e01b600052604160045260246000fd5b634e487b7160e01b600052603260045260246000fd5b600060018201610fc657610fc6610f5f565b5060010190565b600060208284031215610fdf57600080fd5b8151610b7e81610de1565b601f821115610b5d57600081815260208120601f850160051c810160208610156110115750805b601f850160051c820191505b818110156110305782815560010161101d565b505050505050565b67ffffffffffffffff83111561105057611050610f88565b6110648361105e8354610f25565b83610fea565b6000601f84116001811461109857600085156110805750838201355b600019600387901b1c1916600186901b178355610a3d565b600083815260209020601f19861690835b828110156110c957868501358255602094850194600190920191016110a9565b50868210156110e65760001960f88860031b161c19848701351681555b505060018560011b0183555050505050565b634e487b7160e01b600052603160045260246000fdfea2646970667358221220a70b98f53d0b6083cc63585040bf0a99c623865b5d4953b320955b6ea582c2d264736f6c63430008130033",
  "devdoc": {
    "kind": "dev",
    "methods": {},
    "version": 1
  },
  "userdoc": {
    "kind": "user",
    "methods": {},
    "version": 1
  },
  "storageLayout": {
    "storage": [
      {
        "astId": 928,
        "contract": "contracts/LensGelatoGPT.sol:LensGelatoGPT",
        "label": "fee",
        "offset": 0,
        "slot": "0",
        "type": "t_uint256"
      },
      {
        "astId": 932,
        "contract": "contracts/LensGelatoGPT.sol:LensGelatoGPT",
        "label": "promptByProfileId",
        "offset": 0,
        "slot": "1",
        "type": "t_mapping(t_uint256,t_string_storage)"
      },
      {
        "astId": 935,
        "contract": "contracts/LensGelatoGPT.sol:LensGelatoGPT",
        "label": "_profiles",
        "offset": 0,
        "slot": "2",
        "type": "t_struct(UintSet)766_storage"
      }
    ],
    "types": {
      "t_array(t_bytes32)dyn_storage": {
        "base": "t_bytes32",
        "encoding": "dynamic_array",
        "label": "bytes32[]",
        "numberOfBytes": "32"
      },
      "t_bytes32": {
        "encoding": "inplace",
        "label": "bytes32",
        "numberOfBytes": "32"
      },
      "t_mapping(t_bytes32,t_uint256)": {
        "encoding": "mapping",
        "key": "t_bytes32",
        "label": "mapping(bytes32 => uint256)",
        "numberOfBytes": "32",
        "value": "t_uint256"
      },
      "t_mapping(t_uint256,t_string_storage)": {
        "encoding": "mapping",
        "key": "t_uint256",
        "label": "mapping(uint256 => string)",
        "numberOfBytes": "32",
        "value": "t_string_storage"
      },
      "t_string_storage": {
        "encoding": "bytes",
        "label": "string",
        "numberOfBytes": "32"
      },
      "t_struct(Set)294_storage": {
        "encoding": "inplace",
        "label": "struct EnumerableSetUpgradeable.Set",
        "members": [
          {
            "astId": 289,
            "contract": "contracts/LensGelatoGPT.sol:LensGelatoGPT",
            "label": "_values",
            "offset": 0,
            "slot": "0",
            "type": "t_array(t_bytes32)dyn_storage"
          },
          {
            "astId": 293,
            "contract": "contracts/LensGelatoGPT.sol:LensGelatoGPT",
            "label": "_indexes",
            "offset": 0,
            "slot": "1",
            "type": "t_mapping(t_bytes32,t_uint256)"
          }
        ],
        "numberOfBytes": "64"
      },
      "t_struct(UintSet)766_storage": {
        "encoding": "inplace",
        "label": "struct EnumerableSetUpgradeable.UintSet",
        "members": [
          {
            "astId": 765,
            "contract": "contracts/LensGelatoGPT.sol:LensGelatoGPT",
            "label": "_inner",
            "offset": 0,
            "slot": "0",
            "type": "t_struct(Set)294_storage"
          }
        ],
        "numberOfBytes": "64"
      },
      "t_uint256": {
        "encoding": "inplace",
        "label": "uint256",
        "numberOfBytes": "32"
      }
    }
  }
}