{
  "address": "0x1C431C473BAA1D9b999b88c305F2C645e50f3773",
  "abi": [
    {
      "inputs": [
        {
          "internalType": "contract ILensHub",
          "name": "_lensHub",
          "type": "address"
        },
        {
          "internalType": "address",
          "name": "_dedicatedMsgSender",
          "type": "address"
        }
      ],
      "stateMutability": "nonpayable",
      "type": "constructor"
    },
    {
      "inputs": [],
      "name": "areThereNewProfileIds",
      "outputs": [
        {
          "internalType": "bool",
          "name": "",
          "type": "bool"
        }
      ],
      "stateMutability": "view",
      "type": "function"
    },
    {
      "inputs": [
        {
          "internalType": "address payable",
          "name": "_to",
          "type": "address"
        }
      ],
      "name": "collectFee",
      "outputs": [],
      "stateMutability": "nonpayable",
      "type": "function"
    },
    {
      "inputs": [],
      "name": "dedicatedMsgSender",
      "outputs": [
        {
          "internalType": "address",
          "name": "",
          "type": "address"
        }
      ],
      "stateMutability": "view",
      "type": "function"
    },
    {
      "inputs": [],
      "name": "fee",
      "outputs": [
        {
          "internalType": "uint256",
          "name": "",
          "type": "uint256"
        }
      ],
      "stateMutability": "view",
      "type": "function"
    },
    {
      "inputs": [],
      "name": "getNewProfileIds",
      "outputs": [
        {
          "internalType": "uint256[]",
          "name": "",
          "type": "uint256[]"
        }
      ],
      "stateMutability": "view",
      "type": "function"
    },
    {
      "inputs": [],
      "name": "getNewPrompts",
      "outputs": [
        {
          "components": [
            {
              "internalType": "uint256",
              "name": "profileId",
              "type": "uint256"
            },
            {
              "internalType": "string",
              "name": "prompt",
              "type": "string"
            }
          ],
          "internalType": "struct Prompt[]",
          "name": "prompts",
          "type": "tuple[]"
        }
      ],
      "stateMutability": "view",
      "type": "function"
    },
    {
      "inputs": [
        {
          "internalType": "uint256",
          "name": "_from",
          "type": "uint256"
        },
        {
          "internalType": "uint256",
          "name": "_to",
          "type": "uint256"
        }
      ],
      "name": "getPaginatedPrompts",
      "outputs": [
        {
          "components": [
            {
              "internalType": "uint256",
              "name": "profileId",
              "type": "uint256"
            },
            {
              "internalType": "string",
              "name": "prompt",
              "type": "string"
            }
          ],
          "internalType": "struct Prompt[]",
          "name": "prompts",
          "type": "tuple[]"
        }
      ],
      "stateMutability": "view",
      "type": "function"
    },
    {
      "inputs": [],
      "name": "getProfileIds",
      "outputs": [
        {
          "internalType": "uint256[]",
          "name": "",
          "type": "uint256[]"
        }
      ],
      "stateMutability": "view",
      "type": "function"
    },
    {
      "inputs": [],
      "name": "lensHub",
      "outputs": [
        {
          "internalType": "contract ILensHub",
          "name": "",
          "type": "address"
        }
      ],
      "stateMutability": "view",
      "type": "function"
    },
    {
      "inputs": [
        {
          "internalType": "uint256",
          "name": "",
          "type": "uint256"
        }
      ],
      "name": "promptByProfileId",
      "outputs": [
        {
          "internalType": "string",
          "name": "",
          "type": "string"
        }
      ],
      "stateMutability": "view",
      "type": "function"
    },
    {
      "inputs": [
        {
          "internalType": "uint256[]",
          "name": "__profileIds",
          "type": "uint256[]"
        }
      ],
      "name": "removeNewProfileIds",
      "outputs": [],
      "stateMutability": "nonpayable",
      "type": "function"
    },
    {
      "inputs": [
        {
          "internalType": "uint256",
          "name": "_fee",
          "type": "uint256"
        }
      ],
      "name": "setFee",
      "outputs": [],
      "stateMutability": "nonpayable",
      "type": "function"
    },
    {
      "inputs": [
        {
          "internalType": "uint256",
          "name": "_profileId",
          "type": "uint256"
        },
        {
          "internalType": "string",
          "name": "_prompt",
          "type": "string"
        }
      ],
      "name": "setPrompt",
      "outputs": [],
      "stateMutability": "payable",
      "type": "function"
    },
    {
      "inputs": [
        {
          "internalType": "uint256",
          "name": "_profileId",
          "type": "uint256"
        }
      ],
      "name": "stopPrompt",
      "outputs": [],
      "stateMutability": "nonpayable",
      "type": "function"
    }
  ],
  "transactionHash": "0x8f0494458b0bf72ec30d32e1b338bebbb56e4b8e865008cefe6ea59c1e1066ca",
  "args": [
    "0x60Ae865ee4C725cd04353b5AAb364553f56ceF82",
    "0xcc53666e25BF52C7c5Bc1e8F6E1F6bf58E871659"
  ],
  "numDeployments": 3,
  "solcInputHash": "c7b09da25d31bfe2cc75dcc477471ff3",
  "bytecode": "0x60c0604052674563918244f4000060005534801561001c57600080fd5b50604051620018753803806200187583398101604081905261003d9161006c565b6001600160a01b039182166080521660a0526100a6565b6001600160a01b038116811461006957600080fd5b50565b6000806040838503121561007f57600080fd5b825161008a81610054565b602084015190925061009b81610054565b809150509250929050565b60805160a05161176a6200010b6000396000818161011e015281816104370152818161085b01528181610b990152610dfc01526000818161027d015281816104610152818161088501528181610a3101528181610c850152610e26015261176a6000f3fe6080604052600436106100dd5760003560e01c8063738eaf121161007f578063b02cfdc311610059578063b02cfdc31461026b578063ddca3f431461029f578063f65d7234146102c3578063f7f7a5a7146102d857600080fd5b8063738eaf121461020b5780637b2d9e401461022b5780639019f8b01461024b57600080fd5b80634f103884116100bb5780634f1038841461017a5780635d343dbf146101a757806369b59e75146101c957806369fe0e2d146101eb57600080fd5b806323df61a4146100e257806328f150eb1461010c578063470c477b14610158575b600080fd5b3480156100ee57600080fd5b506100f76102eb565b60405190151581526020015b60405180910390f35b34801561011857600080fd5b506101407f000000000000000000000000000000000000000000000000000000000000000081565b6040516001600160a01b039091168152602001610103565b34801561016457600080fd5b5061016d6102fe565b60405161010391906112dc565b34801561018657600080fd5b5061019a610195366004611320565b61030f565b604051610103919061137f565b3480156101b357600080fd5b506101bc6103a9565b6040516101039190611392565b3480156101d557600080fd5b506101e96101e436600461141b565b6105e8565b005b3480156101f757600080fd5b506101e9610206366004611320565b610676565b34801561021757600080fd5b506101bc610226366004611438565b6106ee565b34801561023757600080fd5b506101e9610246366004611320565b610a19565b34801561025757600080fd5b506101e961026636600461145a565b610b8e565b34801561027757600080fd5b506101407f000000000000000000000000000000000000000000000000000000000000000081565b3480156102ab57600080fd5b506102b560005481565b604051908152602001610103565b3480156102cf57600080fd5b5061016d610c61565b6101e96102e63660046114cf565b610c6d565b6000806102f86004610f4d565b11905090565b606061030a6002610f5d565b905090565b600160205260009081526040902080546103289061154b565b80601f01602080910402602001604051908101604052809291908181526020018280546103549061154b565b80156103a15780601f10610376576101008083540402835291602001916103a1565b820191906000526020600020905b81548152906001019060200180831161038457829003601f168201915b505050505081565b606060006103b76004610f4d565b90508067ffffffffffffffff8111156103d2576103d2611585565b60405190808252806020026020018201604052801561041857816020015b6040805180820190915260008152606060208201528152602001906001900390816103f05790505b50915060005b818110156105e3576000610433600483610f71565b90507f00000000000000000000000000000000000000000000000000000000000000006001600160a01b03167f00000000000000000000000000000000000000000000000000000000000000006001600160a01b031663540528b9836040518263ffffffff1660e01b81526004016104ad91815260200190565b602060405180830381865afa1580156104ca573d6000803e3d6000fd5b505050506040513d601f19601f820116820180604052508101906104ee919061159b565b6001600160a01b03161461050257506105d1565b60405180604001604052808281526020016001600084815260200190815260200160002080546105319061154b565b80601f016020809104026020016040519081016040528092919081815260200182805461055d9061154b565b80156105aa5780601f1061057f576101008083540402835291602001916105aa565b820191906000526020600020905b81548152906001019060200180831161058d57829003601f168201915b50505050508152508483815181106105c4576105c46115b8565b6020026020010181905250505b806105db816115e4565b91505061041e565b505090565b7fb53127684a568b3173ae13b9f8a6016e243e63b6e8ee1178d6a717850b5d6103546001600160a01b0316336001600160a01b0316146106605760405162461bcd60e51b815260206004820152600e60248201526d1393d517d055551213d49256915160921b60448201526064015b60405180910390fd5b6106736001600160a01b03821647610f7d565b50565b7fb53127684a568b3173ae13b9f8a6016e243e63b6e8ee1178d6a717850b5d6103546001600160a01b0316336001600160a01b0316146106e95760405162461bcd60e51b815260206004820152600e60248201526d1393d517d055551213d49256915160921b6044820152606401610657565b600055565b606081831061074e5760405162461bcd60e51b815260206004820152602660248201527f4c656e7347656c61746f4750542e676574506167696e6174656450726f6d7074604482015265733a205f746f60d01b6064820152608401610657565b6107586002610f4d565b8311156107b85760405162461bcd60e51b815260206004820152602860248201527f4c656e7347656c61746f4750542e676574506167696e6174656450726f6d7074604482015267733a205f66726f6d60c01b6064820152608401610657565b6107c26002610f4d565b82106107d5576107d26002610f4d565b91505b6107df83836115fd565b67ffffffffffffffff8111156107f7576107f7611585565b60405190808252806020026020018201604052801561083d57816020015b6040805180820190915260008152606060208201528152602001906001900390816108155790505b509050825b82811015610a12576000610857600283610f71565b90507f00000000000000000000000000000000000000000000000000000000000000006001600160a01b03167f00000000000000000000000000000000000000000000000000000000000000006001600160a01b031663540528b9836040518263ffffffff1660e01b81526004016108d191815260200190565b602060405180830381865afa1580156108ee573d6000803e3d6000fd5b505050506040513d601f19601f82011682018060405250810190610912919061159b565b6001600160a01b0316146109265750610a00565b60405180604001604052808281526020016001600084815260200190815260200160002080546109559061154b565b80601f01602080910402602001604051908101604052809291908181526020018280546109819061154b565b80156109ce5780601f106109a3576101008083540402835291602001916109ce565b820191906000526020600020905b8154815290600101906020018083116109b157829003601f168201915b50505050508152508386846109e391906115fd565b815181106109f3576109f36115b8565b6020026020010181905250505b80610a0a816115e4565b915050610842565b5092915050565b6040516331a9108f60e11b81526004810182905281907f00000000000000000000000000000000000000000000000000000000000000006001600160a01b031690636352211e90602401602060405180830381865afa158015610a80573d6000803e3d6000fd5b505050506040513d601f19601f82011682018060405250810190610aa4919061159b565b6001600160a01b0316336001600160a01b031614610b045760405162461bcd60e51b815260206004820152601e60248201527f4c656e7347656c61746f4750542e6f6e6c7950726f66696c654f776e657200006044820152606401610657565b610b0f600283611096565b610b5b5760405162461bcd60e51b815260206004820152601d60248201527f4c656e7347656c61746f4750542e73746f7050726f6d70743a203430340000006044820152606401610657565b610b666004836110ae565b50610b726002836110ae565b506000828152600160205260408120610b8a9161128e565b5050565b336001600160a01b037f00000000000000000000000000000000000000000000000000000000000000001614610c125760405162461bcd60e51b8152602060048201526024808201527f4c656e7347656c61746f4750542e6f6e6c794465646963617465644d73675365604482015263373232b960e11b6064820152608401610657565b60005b81811015610c5c57610c49838383818110610c3257610c326115b8565b9050602002013560046110ae90919063ffffffff16565b5080610c54816115e4565b915050610c15565b505050565b606061030a6004610f5d565b6040516331a9108f60e11b81526004810184905283907f00000000000000000000000000000000000000000000000000000000000000006001600160a01b031690636352211e90602401602060405180830381865afa158015610cd4573d6000803e3d6000fd5b505050506040513d601f19601f82011682018060405250810190610cf8919061159b565b6001600160a01b0316336001600160a01b031614610d585760405162461bcd60e51b815260206004820152601e60248201527f4c656e7347656c61746f4750542e6f6e6c7950726f66696c654f776e657200006044820152606401610657565b6000543414610da95760405162461bcd60e51b815260206004820152601c60248201527f4c656e7347656c61746f4750542e73657450726f6d70743a20666565000000006044820152606401610657565b60a0821115610dfa5760405162461bcd60e51b815260206004820152601f60248201527f4c656e7347656c61746f4750542e73657450726f6d70743a206c656e677468006044820152606401610657565b7f00000000000000000000000000000000000000000000000000000000000000006001600160a01b03167f00000000000000000000000000000000000000000000000000000000000000006001600160a01b031663540528b9866040518263ffffffff1660e01b8152600401610e7291815260200190565b602060405180830381865afa158015610e8f573d6000803e3d6000fd5b505050506040513d601f19601f82011682018060405250810190610eb3919061159b565b6001600160a01b031614610f155760405162461bcd60e51b815260206004820152602360248201527f4c656e7347656c61746f4750542e73657450726f6d70743a20646973706174636044820152623432b960e91b6064820152608401610657565b610f206004856110ba565b50610f2c6002856110ba565b506000848152600160205260409020610f4683858361165e565b5050505050565b6000610f57825490565b92915050565b60606000610f6a836110c6565b9392505050565b6000610f6a8383611122565b80471015610fcd5760405162461bcd60e51b815260206004820152601d60248201527f416464726573733a20696e73756666696369656e742062616c616e63650000006044820152606401610657565b6000826001600160a01b03168260405160006040518083038185875af1925050503d806000811461101a576040519150601f19603f3d011682016040523d82523d6000602084013e61101f565b606091505b5050905080610c5c5760405162461bcd60e51b815260206004820152603a60248201527f416464726573733a20756e61626c6520746f2073656e642076616c75652c207260448201527f6563697069656e74206d617920686176652072657665727465640000000000006064820152608401610657565b60008181526001830160205260408120541515610f6a565b6000610f6a838361114c565b6000610f6a838361123f565b60608160000180548060200260200160405190810160405280929190818152602001828054801561111657602002820191906000526020600020905b815481526020019060010190808311611102575b50505050509050919050565b6000826000018281548110611139576111396115b8565b9060005260206000200154905092915050565b600081815260018301602052604081205480156112355760006111706001836115fd565b8554909150600090611184906001906115fd565b90508181146111e95760008660000182815481106111a4576111a46115b8565b90600052602060002001549050808760000184815481106111c7576111c76115b8565b6000918252602080832090910192909255918252600188019052604090208390555b85548690806111fa576111fa61171e565b600190038181906000526020600020016000905590558560010160008681526020019081526020016000206000905560019350505050610f57565b6000915050610f57565b600081815260018301602052604081205461128657508154600181810184556000848152602080822090930184905584548482528286019093526040902091909155610f57565b506000610f57565b50805461129a9061154b565b6000825580601f106112aa575050565b601f01602090049060005260206000209081019061067391905b808211156112d857600081556001016112c4565b5090565b6020808252825182820181905260009190848201906040850190845b81811015611314578351835292840192918401916001016112f8565b50909695505050505050565b60006020828403121561133257600080fd5b5035919050565b6000815180845260005b8181101561135f57602081850181015186830182015201611343565b506000602082860101526020601f19601f83011685010191505092915050565b602081526000610f6a6020830184611339565b60006020808301818452808551808352604092508286019150828160051b87010184880160005b838110156113f857888303603f190185528151805184528701518784018790526113e587850182611339565b95880195935050908601906001016113b9565b509098975050505050505050565b6001600160a01b038116811461067357600080fd5b60006020828403121561142d57600080fd5b8135610f6a81611406565b6000806040838503121561144b57600080fd5b50508035926020909101359150565b6000806020838503121561146d57600080fd5b823567ffffffffffffffff8082111561148557600080fd5b818501915085601f83011261149957600080fd5b8135818111156114a857600080fd5b8660208260051b85010111156114bd57600080fd5b60209290920196919550909350505050565b6000806000604084860312156114e457600080fd5b83359250602084013567ffffffffffffffff8082111561150357600080fd5b818601915086601f83011261151757600080fd5b81358181111561152657600080fd5b87602082850101111561153857600080fd5b6020830194508093505050509250925092565b600181811c9082168061155f57607f821691505b60208210810361157f57634e487b7160e01b600052602260045260246000fd5b50919050565b634e487b7160e01b600052604160045260246000fd5b6000602082840312156115ad57600080fd5b8151610f6a81611406565b634e487b7160e01b600052603260045260246000fd5b634e487b7160e01b600052601160045260246000fd5b6000600182016115f6576115f66115ce565b5060010190565b81810381811115610f5757610f576115ce565b601f821115610c5c57600081815260208120601f850160051c810160208610156116375750805b601f850160051c820191505b8181101561165657828155600101611643565b505050505050565b67ffffffffffffffff83111561167657611676611585565b61168a83611684835461154b565b83611610565b6000601f8411600181146116be57600085156116a65750838201355b600019600387901b1c1916600186901b178355610f46565b600083815260209020601f19861690835b828110156116ef57868501358255602094850194600190920191016116cf565b508682101561170c5760001960f88860031b161c19848701351681555b505060018560011b0183555050505050565b634e487b7160e01b600052603160045260246000fdfea26469706673582212207e69a1ac07346d3b00da8d3039f50daac1c3207e313781db0713f02a9fe49bcf64736f6c63430008120033",
  "devdoc": {
    "kind": "dev",
    "methods": {},
    "version": 1
  },
  "userdoc": {
    "kind": "user",
    "methods": {},
    "version": 1
  },
  "storageLayout": {
    "storage": [
      {
        "astId": 928,
        "contract": "contracts/LensGelatoGPT.sol:LensGelatoGPT",
        "label": "fee",
        "offset": 0,
        "slot": "0",
        "type": "t_uint256"
      },
      {
        "astId": 932,
        "contract": "contracts/LensGelatoGPT.sol:LensGelatoGPT",
        "label": "promptByProfileId",
        "offset": 0,
        "slot": "1",
        "type": "t_mapping(t_uint256,t_string_storage)"
      },
      {
        "astId": 935,
        "contract": "contracts/LensGelatoGPT.sol:LensGelatoGPT",
        "label": "_profileIds",
        "offset": 0,
        "slot": "2",
        "type": "t_struct(UintSet)766_storage"
      },
      {
        "astId": 938,
        "contract": "contracts/LensGelatoGPT.sol:LensGelatoGPT",
        "label": "_newProfileIds",
        "offset": 0,
        "slot": "4",
        "type": "t_struct(UintSet)766_storage"
      }
    ],
    "types": {
      "t_array(t_bytes32)dyn_storage": {
        "base": "t_bytes32",
        "encoding": "dynamic_array",
        "label": "bytes32[]",
        "numberOfBytes": "32"
      },
      "t_bytes32": {
        "encoding": "inplace",
        "label": "bytes32",
        "numberOfBytes": "32"
      },
      "t_mapping(t_bytes32,t_uint256)": {
        "encoding": "mapping",
        "key": "t_bytes32",
        "label": "mapping(bytes32 => uint256)",
        "numberOfBytes": "32",
        "value": "t_uint256"
      },
      "t_mapping(t_uint256,t_string_storage)": {
        "encoding": "mapping",
        "key": "t_uint256",
        "label": "mapping(uint256 => string)",
        "numberOfBytes": "32",
        "value": "t_string_storage"
      },
      "t_string_storage": {
        "encoding": "bytes",
        "label": "string",
        "numberOfBytes": "32"
      },
      "t_struct(Set)294_storage": {
        "encoding": "inplace",
        "label": "struct EnumerableSetUpgradeable.Set",
        "members": [
          {
            "astId": 289,
            "contract": "contracts/LensGelatoGPT.sol:LensGelatoGPT",
            "label": "_values",
            "offset": 0,
            "slot": "0",
            "type": "t_array(t_bytes32)dyn_storage"
          },
          {
            "astId": 293,
            "contract": "contracts/LensGelatoGPT.sol:LensGelatoGPT",
            "label": "_indexes",
            "offset": 0,
            "slot": "1",
            "type": "t_mapping(t_bytes32,t_uint256)"
          }
        ],
        "numberOfBytes": "64"
      },
      "t_struct(UintSet)766_storage": {
        "encoding": "inplace",
        "label": "struct EnumerableSetUpgradeable.UintSet",
        "members": [
          {
            "astId": 765,
            "contract": "contracts/LensGelatoGPT.sol:LensGelatoGPT",
            "label": "_inner",
            "offset": 0,
            "slot": "0",
            "type": "t_struct(Set)294_storage"
          }
        ],
        "numberOfBytes": "64"
      },
      "t_uint256": {
        "encoding": "inplace",
        "label": "uint256",
        "numberOfBytes": "32"
      }
    }
  }
}