{
  "address": "0x44b489D249b98C9cd500f9F27288921e956C419A",
  "abi": [
    {
      "inputs": [
        {
          "internalType": "contract ILensHub",
          "name": "_lensHub",
          "type": "address"
        },
        {
          "internalType": "address",
          "name": "_dedicatedMsgSender",
          "type": "address"
        }
      ],
      "stateMutability": "nonpayable",
      "type": "constructor"
    },
    {
      "inputs": [],
      "name": "areThereNewProfileIds",
      "outputs": [
        {
          "internalType": "bool",
          "name": "",
          "type": "bool"
        }
      ],
      "stateMutability": "view",
      "type": "function"
    },
    {
      "inputs": [
        {
          "internalType": "address payable",
          "name": "_to",
          "type": "address"
        }
      ],
      "name": "collectFee",
      "outputs": [],
      "stateMutability": "nonpayable",
      "type": "function"
    },
    {
      "inputs": [],
      "name": "dedicatedMsgSender",
      "outputs": [
        {
          "internalType": "address",
          "name": "",
          "type": "address"
        }
      ],
      "stateMutability": "view",
      "type": "function"
    },
    {
      "inputs": [],
      "name": "fee",
      "outputs": [
        {
          "internalType": "uint256",
          "name": "",
          "type": "uint256"
        }
      ],
      "stateMutability": "view",
      "type": "function"
    },
    {
      "inputs": [],
      "name": "getNewProfileIds",
      "outputs": [
        {
          "internalType": "uint256[]",
          "name": "",
          "type": "uint256[]"
        }
      ],
      "stateMutability": "view",
      "type": "function"
    },
    {
      "inputs": [],
      "name": "getNewPrompts",
      "outputs": [
        {
          "components": [
            {
              "internalType": "uint256",
              "name": "profileId",
              "type": "uint256"
            },
            {
              "internalType": "string",
              "name": "prompt",
              "type": "string"
            }
          ],
          "internalType": "struct Prompt[]",
          "name": "prompts",
          "type": "tuple[]"
        }
      ],
      "stateMutability": "view",
      "type": "function"
    },
    {
      "inputs": [
        {
          "internalType": "uint256",
          "name": "_from",
          "type": "uint256"
        },
        {
          "internalType": "uint256",
          "name": "_to",
          "type": "uint256"
        }
      ],
      "name": "getPaginatedPrompts",
      "outputs": [
        {
          "components": [
            {
              "internalType": "uint256",
              "name": "profileId",
              "type": "uint256"
            },
            {
              "internalType": "string",
              "name": "prompt",
              "type": "string"
            }
          ],
          "internalType": "struct Prompt[]",
          "name": "prompts",
          "type": "tuple[]"
        }
      ],
      "stateMutability": "view",
      "type": "function"
    },
    {
      "inputs": [],
      "name": "getProfileIds",
      "outputs": [
        {
          "internalType": "uint256[]",
          "name": "",
          "type": "uint256[]"
        }
      ],
      "stateMutability": "view",
      "type": "function"
    },
    {
      "inputs": [],
      "name": "getTotalNumberOfProfiles",
      "outputs": [
        {
          "internalType": "uint256",
          "name": "",
          "type": "uint256"
        }
      ],
      "stateMutability": "view",
      "type": "function"
    },
    {
      "inputs": [],
      "name": "lensHub",
      "outputs": [
        {
          "internalType": "contract ILensHub",
          "name": "",
          "type": "address"
        }
      ],
      "stateMutability": "view",
      "type": "function"
    },
    {
      "inputs": [
        {
          "internalType": "uint256",
          "name": "",
          "type": "uint256"
        }
      ],
      "name": "promptByProfileId",
      "outputs": [
        {
          "internalType": "string",
          "name": "",
          "type": "string"
        }
      ],
      "stateMutability": "view",
      "type": "function"
    },
    {
      "inputs": [
        {
          "internalType": "uint256[]",
          "name": "__profileIds",
          "type": "uint256[]"
        }
      ],
      "name": "removeNewProfileIds",
      "outputs": [],
      "stateMutability": "nonpayable",
      "type": "function"
    },
    {
      "inputs": [
        {
          "internalType": "uint256",
          "name": "_fee",
          "type": "uint256"
        }
      ],
      "name": "setFee",
      "outputs": [],
      "stateMutability": "nonpayable",
      "type": "function"
    },
    {
      "inputs": [
        {
          "internalType": "uint256",
          "name": "_profileId",
          "type": "uint256"
        },
        {
          "internalType": "string",
          "name": "_prompt",
          "type": "string"
        }
      ],
      "name": "setPrompt",
      "outputs": [],
      "stateMutability": "payable",
      "type": "function"
    },
    {
      "inputs": [
        {
          "internalType": "uint256",
          "name": "_profileId",
          "type": "uint256"
        }
      ],
      "name": "stopPrompt",
      "outputs": [],
      "stateMutability": "nonpayable",
      "type": "function"
    }
  ],
  "transactionHash": "0xe17a4dee5af5494d9f2e1801ad4623347396698fa166e5c5707651dc82e99943",
  "args": [
    "0x60Ae865ee4C725cd04353b5AAb364553f56ceF82",
    "0xcc53666e25BF52C7c5Bc1e8F6E1F6bf58E871659"
  ],
  "numDeployments": 4,
  "solcInputHash": "0e2e93c31bd80cef022224b6f74d8422",
  "bytecode": "0x60c0604052674563918244f400006000553480156200001d57600080fd5b50604051620018ab380380620018ab833981016040819052620000409162000071565b6001600160a01b039182166080521660a052620000b0565b6001600160a01b03811681146200006e57600080fd5b50565b600080604083850312156200008557600080fd5b8251620000928162000058565b6020840151909250620000a58162000058565b809150509250929050565b60805160a0516117966200011560003960008181610129015281816104570152818161088701528181610bc50152610e280152600081816102ab01528181610481015281816108b101528181610a5d01528181610cb10152610e5201526117966000f3fe6080604052600436106100e85760003560e01c806370455b7f1161008a578063b02cfdc311610059578063b02cfdc314610299578063ddca3f43146102cd578063f65d7234146102e3578063f7f7a5a7146102f857600080fd5b806370455b7f14610216578063738eaf12146102395780637b2d9e40146102595780639019f8b01461027957600080fd5b80634f103884116100c65780634f103884146101855780635d343dbf146101b257806369b59e75146101d457806369fe0e2d146101f657600080fd5b806323df61a4146100ed57806328f150eb14610117578063470c477b14610163575b600080fd5b3480156100f957600080fd5b5061010261030b565b60405190151581526020015b60405180910390f35b34801561012357600080fd5b5061014b7f000000000000000000000000000000000000000000000000000000000000000081565b6040516001600160a01b03909116815260200161010e565b34801561016f57600080fd5b5061017861031e565b60405161010e9190611308565b34801561019157600080fd5b506101a56101a036600461134c565b61032f565b60405161010e91906113ab565b3480156101be57600080fd5b506101c76103c9565b60405161010e91906113be565b3480156101e057600080fd5b506101f46101ef366004611447565b610608565b005b34801561020257600080fd5b506101f461021136600461134c565b610696565b34801561022257600080fd5b5061022b61070e565b60405190815260200161010e565b34801561024557600080fd5b506101c7610254366004611464565b61071a565b34801561026557600080fd5b506101f461027436600461134c565b610a45565b34801561028557600080fd5b506101f4610294366004611486565b610bba565b3480156102a557600080fd5b5061014b7f000000000000000000000000000000000000000000000000000000000000000081565b3480156102d957600080fd5b5061022b60005481565b3480156102ef57600080fd5b50610178610c8d565b6101f46103063660046114fb565b610c99565b6000806103186004610f79565b11905090565b606061032a6002610f89565b905090565b6001602052600090815260409020805461034890611577565b80601f016020809104026020016040519081016040528092919081815260200182805461037490611577565b80156103c15780601f10610396576101008083540402835291602001916103c1565b820191906000526020600020905b8154815290600101906020018083116103a457829003601f168201915b505050505081565b606060006103d76004610f79565b90508067ffffffffffffffff8111156103f2576103f26115b1565b60405190808252806020026020018201604052801561043857816020015b6040805180820190915260008152606060208201528152602001906001900390816104105790505b50915060005b81811015610603576000610453600483610f9d565b90507f00000000000000000000000000000000000000000000000000000000000000006001600160a01b03167f00000000000000000000000000000000000000000000000000000000000000006001600160a01b031663540528b9836040518263ffffffff1660e01b81526004016104cd91815260200190565b602060405180830381865afa1580156104ea573d6000803e3d6000fd5b505050506040513d601f19601f8201168201806040525081019061050e91906115c7565b6001600160a01b03161461052257506105f1565b604051806040016040528082815260200160016000848152602001908152602001600020805461055190611577565b80601f016020809104026020016040519081016040528092919081815260200182805461057d90611577565b80156105ca5780601f1061059f576101008083540402835291602001916105ca565b820191906000526020600020905b8154815290600101906020018083116105ad57829003601f168201915b50505050508152508483815181106105e4576105e46115e4565b6020026020010181905250505b806105fb81611610565b91505061043e565b505090565b7fb53127684a568b3173ae13b9f8a6016e243e63b6e8ee1178d6a717850b5d6103546001600160a01b0316336001600160a01b0316146106805760405162461bcd60e51b815260206004820152600e60248201526d1393d517d055551213d49256915160921b60448201526064015b60405180910390fd5b6106936001600160a01b03821647610fa9565b50565b7fb53127684a568b3173ae13b9f8a6016e243e63b6e8ee1178d6a717850b5d6103546001600160a01b0316336001600160a01b0316146107095760405162461bcd60e51b815260206004820152600e60248201526d1393d517d055551213d49256915160921b6044820152606401610677565b600055565b600061032a6002610f79565b606081831061077a5760405162461bcd60e51b815260206004820152602660248201527f4c656e7347656c61746f4750542e676574506167696e6174656450726f6d7074604482015265733a205f746f60d01b6064820152608401610677565b6107846002610f79565b8311156107e45760405162461bcd60e51b815260206004820152602860248201527f4c656e7347656c61746f4750542e676574506167696e6174656450726f6d7074604482015267733a205f66726f6d60c01b6064820152608401610677565b6107ee6002610f79565b8210610801576107fe6002610f79565b91505b61080b8383611629565b67ffffffffffffffff811115610823576108236115b1565b60405190808252806020026020018201604052801561086957816020015b6040805180820190915260008152606060208201528152602001906001900390816108415790505b509050825b82811015610a3e576000610883600283610f9d565b90507f00000000000000000000000000000000000000000000000000000000000000006001600160a01b03167f00000000000000000000000000000000000000000000000000000000000000006001600160a01b031663540528b9836040518263ffffffff1660e01b81526004016108fd91815260200190565b602060405180830381865afa15801561091a573d6000803e3d6000fd5b505050506040513d601f19601f8201168201806040525081019061093e91906115c7565b6001600160a01b0316146109525750610a2c565b604051806040016040528082815260200160016000848152602001908152602001600020805461098190611577565b80601f01602080910402602001604051908101604052809291908181526020018280546109ad90611577565b80156109fa5780601f106109cf576101008083540402835291602001916109fa565b820191906000526020600020905b8154815290600101906020018083116109dd57829003601f168201915b5050505050815250838684610a0f9190611629565b81518110610a1f57610a1f6115e4565b6020026020010181905250505b80610a3681611610565b91505061086e565b5092915050565b6040516331a9108f60e11b81526004810182905281907f00000000000000000000000000000000000000000000000000000000000000006001600160a01b031690636352211e90602401602060405180830381865afa158015610aac573d6000803e3d6000fd5b505050506040513d601f19601f82011682018060405250810190610ad091906115c7565b6001600160a01b0316336001600160a01b031614610b305760405162461bcd60e51b815260206004820152601e60248201527f4c656e7347656c61746f4750542e6f6e6c7950726f66696c654f776e657200006044820152606401610677565b610b3b6002836110c2565b610b875760405162461bcd60e51b815260206004820152601d60248201527f4c656e7347656c61746f4750542e73746f7050726f6d70743a203430340000006044820152606401610677565b610b926004836110da565b50610b9e6002836110da565b506000828152600160205260408120610bb6916112ba565b5050565b336001600160a01b037f00000000000000000000000000000000000000000000000000000000000000001614610c3e5760405162461bcd60e51b8152602060048201526024808201527f4c656e7347656c61746f4750542e6f6e6c794465646963617465644d73675365604482015263373232b960e11b6064820152608401610677565b60005b81811015610c8857610c75838383818110610c5e57610c5e6115e4565b9050602002013560046110da90919063ffffffff16565b5080610c8081611610565b915050610c41565b505050565b606061032a6004610f89565b6040516331a9108f60e11b81526004810184905283907f00000000000000000000000000000000000000000000000000000000000000006001600160a01b031690636352211e90602401602060405180830381865afa158015610d00573d6000803e3d6000fd5b505050506040513d601f19601f82011682018060405250810190610d2491906115c7565b6001600160a01b0316336001600160a01b031614610d845760405162461bcd60e51b815260206004820152601e60248201527f4c656e7347656c61746f4750542e6f6e6c7950726f66696c654f776e657200006044820152606401610677565b6000543414610dd55760405162461bcd60e51b815260206004820152601c60248201527f4c656e7347656c61746f4750542e73657450726f6d70743a20666565000000006044820152606401610677565b60a0821115610e265760405162461bcd60e51b815260206004820152601f60248201527f4c656e7347656c61746f4750542e73657450726f6d70743a206c656e677468006044820152606401610677565b7f00000000000000000000000000000000000000000000000000000000000000006001600160a01b03167f00000000000000000000000000000000000000000000000000000000000000006001600160a01b031663540528b9866040518263ffffffff1660e01b8152600401610e9e91815260200190565b602060405180830381865afa158015610ebb573d6000803e3d6000fd5b505050506040513d601f19601f82011682018060405250810190610edf91906115c7565b6001600160a01b031614610f415760405162461bcd60e51b815260206004820152602360248201527f4c656e7347656c61746f4750542e73657450726f6d70743a20646973706174636044820152623432b960e91b6064820152608401610677565b610f4c6004856110e6565b50610f586002856110e6565b506000848152600160205260409020610f7283858361168a565b5050505050565b6000610f83825490565b92915050565b60606000610f96836110f2565b9392505050565b6000610f96838361114e565b80471015610ff95760405162461bcd60e51b815260206004820152601d60248201527f416464726573733a20696e73756666696369656e742062616c616e63650000006044820152606401610677565b6000826001600160a01b03168260405160006040518083038185875af1925050503d8060008114611046576040519150601f19603f3d011682016040523d82523d6000602084013e61104b565b606091505b5050905080610c885760405162461bcd60e51b815260206004820152603a60248201527f416464726573733a20756e61626c6520746f2073656e642076616c75652c207260448201527f6563697069656e74206d617920686176652072657665727465640000000000006064820152608401610677565b60008181526001830160205260408120541515610f96565b6000610f968383611178565b6000610f96838361126b565b60608160000180548060200260200160405190810160405280929190818152602001828054801561114257602002820191906000526020600020905b81548152602001906001019080831161112e575b50505050509050919050565b6000826000018281548110611165576111656115e4565b9060005260206000200154905092915050565b6000818152600183016020526040812054801561126157600061119c600183611629565b85549091506000906111b090600190611629565b90508181146112155760008660000182815481106111d0576111d06115e4565b90600052602060002001549050808760000184815481106111f3576111f36115e4565b6000918252602080832090910192909255918252600188019052604090208390555b85548690806112265761122661174a565b600190038181906000526020600020016000905590558560010160008681526020019081526020016000206000905560019350505050610f83565b6000915050610f83565b60008181526001830160205260408120546112b257508154600181810184556000848152602080822090930184905584548482528286019093526040902091909155610f83565b506000610f83565b5080546112c690611577565b6000825580601f106112d6575050565b601f01602090049060005260206000209081019061069391905b8082111561130457600081556001016112f0565b5090565b6020808252825182820181905260009190848201906040850190845b8181101561134057835183529284019291840191600101611324565b50909695505050505050565b60006020828403121561135e57600080fd5b5035919050565b6000815180845260005b8181101561138b5760208185018101518683018201520161136f565b506000602082860101526020601f19601f83011685010191505092915050565b602081526000610f966020830184611365565b60006020808301818452808551808352604092508286019150828160051b87010184880160005b8381101561142457888303603f1901855281518051845287015187840187905261141187850182611365565b95880195935050908601906001016113e5565b509098975050505050505050565b6001600160a01b038116811461069357600080fd5b60006020828403121561145957600080fd5b8135610f9681611432565b6000806040838503121561147757600080fd5b50508035926020909101359150565b6000806020838503121561149957600080fd5b823567ffffffffffffffff808211156114b157600080fd5b818501915085601f8301126114c557600080fd5b8135818111156114d457600080fd5b8660208260051b85010111156114e957600080fd5b60209290920196919550909350505050565b60008060006040848603121561151057600080fd5b83359250602084013567ffffffffffffffff8082111561152f57600080fd5b818601915086601f83011261154357600080fd5b81358181111561155257600080fd5b87602082850101111561156457600080fd5b6020830194508093505050509250925092565b600181811c9082168061158b57607f821691505b6020821081036115ab57634e487b7160e01b600052602260045260246000fd5b50919050565b634e487b7160e01b600052604160045260246000fd5b6000602082840312156115d957600080fd5b8151610f9681611432565b634e487b7160e01b600052603260045260246000fd5b634e487b7160e01b600052601160045260246000fd5b600060018201611622576116226115fa565b5060010190565b81810381811115610f8357610f836115fa565b601f821115610c8857600081815260208120601f850160051c810160208610156116635750805b601f850160051c820191505b818110156116825782815560010161166f565b505050505050565b67ffffffffffffffff8311156116a2576116a26115b1565b6116b6836116b08354611577565b8361163c565b6000601f8411600181146116ea57600085156116d25750838201355b600019600387901b1c1916600186901b178355610f72565b600083815260209020601f19861690835b8281101561171b57868501358255602094850194600190920191016116fb565b50868210156117385760001960f88860031b161c19848701351681555b505060018560011b0183555050505050565b634e487b7160e01b600052603160045260246000fdfea26469706673582212201d3f44022457a481e3ab0767f738f59933739a01a82056a6e56fe5bc94b1108864736f6c63430008120033",
  "devdoc": {
    "kind": "dev",
    "methods": {},
    "version": 1
  },
  "userdoc": {
    "kind": "user",
    "methods": {},
    "version": 1
  },
  "storageLayout": {
    "storage": [
      {
        "astId": 928,
        "contract": "contracts/LensGelatoGPT.sol:LensGelatoGPT",
        "label": "fee",
        "offset": 0,
        "slot": "0",
        "type": "t_uint256"
      },
      {
        "astId": 932,
        "contract": "contracts/LensGelatoGPT.sol:LensGelatoGPT",
        "label": "promptByProfileId",
        "offset": 0,
        "slot": "1",
        "type": "t_mapping(t_uint256,t_string_storage)"
      },
      {
        "astId": 935,
        "contract": "contracts/LensGelatoGPT.sol:LensGelatoGPT",
        "label": "_profileIds",
        "offset": 0,
        "slot": "2",
        "type": "t_struct(UintSet)766_storage"
      },
      {
        "astId": 938,
        "contract": "contracts/LensGelatoGPT.sol:LensGelatoGPT",
        "label": "_newProfileIds",
        "offset": 0,
        "slot": "4",
        "type": "t_struct(UintSet)766_storage"
      }
    ],
    "types": {
      "t_array(t_bytes32)dyn_storage": {
        "base": "t_bytes32",
        "encoding": "dynamic_array",
        "label": "bytes32[]",
        "numberOfBytes": "32"
      },
      "t_bytes32": {
        "encoding": "inplace",
        "label": "bytes32",
        "numberOfBytes": "32"
      },
      "t_mapping(t_bytes32,t_uint256)": {
        "encoding": "mapping",
        "key": "t_bytes32",
        "label": "mapping(bytes32 => uint256)",
        "numberOfBytes": "32",
        "value": "t_uint256"
      },
      "t_mapping(t_uint256,t_string_storage)": {
        "encoding": "mapping",
        "key": "t_uint256",
        "label": "mapping(uint256 => string)",
        "numberOfBytes": "32",
        "value": "t_string_storage"
      },
      "t_string_storage": {
        "encoding": "bytes",
        "label": "string",
        "numberOfBytes": "32"
      },
      "t_struct(Set)294_storage": {
        "encoding": "inplace",
        "label": "struct EnumerableSetUpgradeable.Set",
        "members": [
          {
            "astId": 289,
            "contract": "contracts/LensGelatoGPT.sol:LensGelatoGPT",
            "label": "_values",
            "offset": 0,
            "slot": "0",
            "type": "t_array(t_bytes32)dyn_storage"
          },
          {
            "astId": 293,
            "contract": "contracts/LensGelatoGPT.sol:LensGelatoGPT",
            "label": "_indexes",
            "offset": 0,
            "slot": "1",
            "type": "t_mapping(t_bytes32,t_uint256)"
          }
        ],
        "numberOfBytes": "64"
      },
      "t_struct(UintSet)766_storage": {
        "encoding": "inplace",
        "label": "struct EnumerableSetUpgradeable.UintSet",
        "members": [
          {
            "astId": 765,
            "contract": "contracts/LensGelatoGPT.sol:LensGelatoGPT",
            "label": "_inner",
            "offset": 0,
            "slot": "0",
            "type": "t_struct(Set)294_storage"
          }
        ],
        "numberOfBytes": "64"
      },
      "t_uint256": {
        "encoding": "inplace",
        "label": "uint256",
        "numberOfBytes": "32"
      }
    }
  }
}